{
  "contractName": "IDPig",
  "abi": [
    {
      "constant": true,
      "inputs": [],
      "name": "owner",
      "outputs": [
        {
          "name": "",
          "type": "address"
        }
      ],
      "payable": false,
      "stateMutability": "view",
      "type": "function"
    },
    {
      "constant": false,
      "inputs": [
        {
          "name": "newOwner",
          "type": "address"
        }
      ],
      "name": "transferOwnership",
      "outputs": [],
      "payable": false,
      "stateMutability": "nonpayable",
      "type": "function"
    },
    {
      "inputs": [],
      "payable": false,
      "stateMutability": "nonpayable",
      "type": "constructor"
    },
    {
      "anonymous": false,
      "inputs": [
        {
          "indexed": false,
          "name": "",
          "type": "string"
        },
        {
          "indexed": false,
          "name": "",
          "type": "string"
        },
        {
          "indexed": false,
          "name": "",
          "type": "string"
        }
      ],
      "name": "mylog",
      "type": "event"
    },
    {
      "anonymous": false,
      "inputs": [
        {
          "indexed": true,
          "name": "previousOwner",
          "type": "address"
        },
        {
          "indexed": true,
          "name": "newOwner",
          "type": "address"
        }
      ],
      "name": "OwnershipTransferred",
      "type": "event"
    },
    {
      "constant": false,
      "inputs": [
        {
          "name": "_id",
          "type": "string"
        },
        {
          "name": "_k",
          "type": "bytes32"
        },
        {
          "name": "_v",
          "type": "string"
        }
      ],
      "name": "set",
      "outputs": [],
      "payable": false,
      "stateMutability": "nonpayable",
      "type": "function"
    },
    {
      "constant": true,
      "inputs": [
        {
          "name": "_id",
          "type": "string"
        },
        {
          "name": "_k",
          "type": "bytes32"
        }
      ],
      "name": "get",
      "outputs": [
        {
          "name": "",
          "type": "string"
        }
      ],
      "payable": false,
      "stateMutability": "view",
      "type": "function"
    },
    {
      "constant": true,
      "inputs": [
        {
          "name": "_id",
          "type": "string"
        }
      ],
      "name": "getListKey",
      "outputs": [
        {
          "name": "",
          "type": "bytes32[]"
        }
      ],
      "payable": false,
      "stateMutability": "view",
      "type": "function"
    }
  ],
  "bytecode": "0x6060604052341561000f57600080fd5b60008054600160a060020a033316600160a060020a03199091161790556108218061003b6000396000f30060606040526004361061006c5763ffffffff7c01000000000000000000000000000000000000000000000000000000006000350416638914e39081146100715780638da5cb5b1461010b578063b7e1bd551461013a578063bb0fe98214610204578063f2fde38b146102a8575b600080fd5b341561007c57600080fd5b61010960046024813581810190830135806020601f8201819004810201604051908101604052818152929190602084018383808284375094968635969095506040808201955060209182013587018083019550359350839250601f83018290048202909101905190810160405281815292919060208401838380828437509496506102c795505050505050565b005b341561011657600080fd5b61011e61048a565b604051600160a060020a03909116815260200160405180910390f35b341561014557600080fd5b61018d60046024813581810190830135806020601f82018190048102016040519081016040528181529291906020840183838082843750949650509335935061049992505050565b60405160208082528190810183818151815260200191508051906020019080838360005b838110156101c95780820151838201526020016101b1565b50505050905090810190601f1680156101f65780820380516001836020036101000a031916815260200191505b509250505060405180910390f35b341561020f57600080fd5b61025560046024813581810190830135806020601f820181900481020160405190810160405281815292919060208401838380828437509496506105c095505050505050565b60405160208082528190810183818151815260200191508051906020019060200280838360005b8381101561029457808201518382015260200161027c565b505050509050019250505060405180910390f35b34156102b357600080fd5b610109600160a060020a0360043516610684565b60005433600160a060020a039081169116146102e257600080fd5b60006001846040518082805190602001908083835b602083106103165780518252601f1990920191602091820191016102f7565b6001836020036101000a0380198251168184511680821785525050505050509050019150509081526020016040519081900390206000848152602091909152604090205460026101006001831615026000190190911604111561037857600080fd5b806001846040518082805190602001908083835b602083106103ab5780518252601f19909201916020918201910161038c565b6001836020036101000a0380198251168184511680821785525050505050509050019150509081526020016040519081900390206000848152602091909152604090209080516103ff92916020019061071f565b506002836040518082805190602001908083835b602083106104325780518252601f199092019160209182019101610413565b6001836020036101000a038019825116818451168082178552505050505050905001915050908152602001604051908190039020805460018101610476838261079d565b506000918252602090912001919091555050565b600054600160a060020a031681565b6104a16107c6565b6001836040518082805190602001908083835b602083106104d35780518252601f1990920191602091820191016104b4565b6001836020036101000a0380198251168184511680821785525050505050509050019150509081526020016040518091039020600083600019166000191681526020019081526020016000208054600181600116156101000203166002900480601f0160208091040260200160405190810160405280929190818152602001828054600181600116156101000203166002900480156105b35780601f10610588576101008083540402835291602001916105b3565b820191906000526020600020905b81548152906001019060200180831161059657829003601f168201915b5050505050905092915050565b6105c86107c6565b6002826040518082805190602001908083835b602083106105fa5780518252601f1990920191602091820191016105db565b6001836020036101000a038019825116818451168082178552505050505050905001915050908152602001604051809103902080548060200260200160405190810160405280929190818152602001828054801561067857602002820191906000526020600020905b81548152600190910190602001808311610663575b50505050509050919050565b60005433600160a060020a0390811691161461069f57600080fd5b600160a060020a03811615156106b457600080fd5b600054600160a060020a0380831691167f8be0079c531659141344cd1fd0a4f28419497f9722a3daafe3b4186f6b6457e060405160405180910390a36000805473ffffffffffffffffffffffffffffffffffffffff1916600160a060020a0392909216919091179055565b828054600181600116156101000203166002900490600052602060002090601f016020900481019282601f1061076057805160ff191683800117855561078d565b8280016001018555821561078d579182015b8281111561078d578251825591602001919060010190610772565b506107999291506107d8565b5090565b8154818355818115116107c1576000838152602090206107c19181019083016107d8565b505050565b60206040519081016040526000815290565b6107f291905b8082111561079957600081556001016107de565b905600a165627a7a72305820f8a7752e1645da67ff1a6ab9db98db352845d9e630f25db1aa3b8aa9cb6170160029",
  "source": "pragma solidity ^0.4.18;\n\nimport \"zeppelin-solidity/contracts/ownership/Ownable.sol\";\n\ncontract IDPig is Ownable {\n    mapping(string=>mapping(bytes32=>string))  idkv;\n    mapping(string=>bytes32[])  idlist;\n    \n    event mylog(string,string,string);\n    \n    function IDPig() public {\n        \n    }\n    function set(string _id,bytes32 _k,string _v ) onlyOwner public {\n        require(bytes(idkv[_id][_k]).length<=0);\n        idkv[_id][_k] = _v;\n        idlist[_id].push(_k);\n    }\n    function get(string _id,bytes32 _k)   public view returns(string){\n        return idkv[_id][_k];\n    }\n    function getListKey(string _id) public view returns(bytes32[]){\n        return idlist[_id];\n    }\n}",
  "sourcePath": "/Users/lixi/dapp/idpig/contracts/IDPig.sol",
  "compiler": {
    "name": "solc",
    "version": "0.4.19+commit.c4cbbb05.Emscripten.clang"
  },
  "schemaVersion": "1.0.1",
  "updatedAt": "2018-05-04T10:27:04.882Z"
}