{
  "contractName": "IDPig",
  "abi": [
    {
      "constant": false,
      "inputs": [
        {
          "name": "addrs",
          "type": "address[]"
        }
      ],
      "name": "removeAddressesFromWhitelist",
      "outputs": [
        {
          "name": "success",
          "type": "bool"
        }
      ],
      "payable": false,
      "stateMutability": "nonpayable",
      "type": "function"
    },
    {
      "constant": false,
      "inputs": [
        {
          "name": "addr",
          "type": "address"
        }
      ],
      "name": "removeAddressFromWhitelist",
      "outputs": [
        {
          "name": "success",
          "type": "bool"
        }
      ],
      "payable": false,
      "stateMutability": "nonpayable",
      "type": "function"
    },
    {
      "constant": false,
      "inputs": [],
      "name": "renounceOwnership",
      "outputs": [],
      "payable": false,
      "stateMutability": "nonpayable",
      "type": "function"
    },
    {
      "constant": false,
      "inputs": [
        {
          "name": "addr",
          "type": "address"
        }
      ],
      "name": "addAddressToWhitelist",
      "outputs": [
        {
          "name": "success",
          "type": "bool"
        }
      ],
      "payable": false,
      "stateMutability": "nonpayable",
      "type": "function"
    },
    {
      "constant": true,
      "inputs": [],
      "name": "owner",
      "outputs": [
        {
          "name": "",
          "type": "address"
        }
      ],
      "payable": false,
      "stateMutability": "view",
      "type": "function"
    },
    {
      "constant": true,
      "inputs": [
        {
          "name": "",
          "type": "address"
        }
      ],
      "name": "whitelist",
      "outputs": [
        {
          "name": "",
          "type": "bool"
        }
      ],
      "payable": false,
      "stateMutability": "view",
      "type": "function"
    },
    {
      "constant": false,
      "inputs": [
        {
          "name": "addrs",
          "type": "address[]"
        }
      ],
      "name": "addAddressesToWhitelist",
      "outputs": [
        {
          "name": "success",
          "type": "bool"
        }
      ],
      "payable": false,
      "stateMutability": "nonpayable",
      "type": "function"
    },
    {
      "constant": false,
      "inputs": [
        {
          "name": "newOwner",
          "type": "address"
        }
      ],
      "name": "transferOwnership",
      "outputs": [],
      "payable": false,
      "stateMutability": "nonpayable",
      "type": "function"
    },
    {
      "inputs": [],
      "payable": false,
      "stateMutability": "nonpayable",
      "type": "constructor"
    },
    {
      "anonymous": false,
      "inputs": [
        {
          "indexed": true,
          "name": "",
          "type": "string"
        },
        {
          "indexed": true,
          "name": "",
          "type": "bytes32"
        },
        {
          "indexed": false,
          "name": "",
          "type": "string"
        }
      ],
      "name": "SetLog",
      "type": "event"
    },
    {
      "anonymous": false,
      "inputs": [
        {
          "indexed": false,
          "name": "addr",
          "type": "address"
        }
      ],
      "name": "WhitelistedAddressAdded",
      "type": "event"
    },
    {
      "anonymous": false,
      "inputs": [
        {
          "indexed": false,
          "name": "addr",
          "type": "address"
        }
      ],
      "name": "WhitelistedAddressRemoved",
      "type": "event"
    },
    {
      "anonymous": false,
      "inputs": [
        {
          "indexed": true,
          "name": "previousOwner",
          "type": "address"
        }
      ],
      "name": "OwnershipRenounced",
      "type": "event"
    },
    {
      "anonymous": false,
      "inputs": [
        {
          "indexed": true,
          "name": "previousOwner",
          "type": "address"
        },
        {
          "indexed": true,
          "name": "newOwner",
          "type": "address"
        }
      ],
      "name": "OwnershipTransferred",
      "type": "event"
    },
    {
      "constant": false,
      "inputs": [
        {
          "name": "_id",
          "type": "string"
        },
        {
          "name": "_k",
          "type": "bytes32"
        },
        {
          "name": "_v",
          "type": "string"
        }
      ],
      "name": "set",
      "outputs": [],
      "payable": false,
      "stateMutability": "nonpayable",
      "type": "function"
    },
    {
      "constant": true,
      "inputs": [
        {
          "name": "_id",
          "type": "string"
        },
        {
          "name": "_k",
          "type": "bytes32"
        }
      ],
      "name": "get",
      "outputs": [
        {
          "name": "",
          "type": "string"
        }
      ],
      "payable": false,
      "stateMutability": "view",
      "type": "function"
    },
    {
      "constant": true,
      "inputs": [
        {
          "name": "_id",
          "type": "string"
        }
      ],
      "name": "getListKey",
      "outputs": [
        {
          "name": "",
          "type": "bytes32[]"
        }
      ],
      "payable": false,
      "stateMutability": "view",
      "type": "function"
    }
  ],
  "bytecode": "0x608060405234801561001057600080fd5b5060008054600160a060020a033316600160a060020a0319909116179055610c9f8061003d6000396000f3006080604052600436106100ae5763ffffffff7c010000000000000000000000000000000000000000000000000000000060003504166324953eaa81146100b3578063286dd3f51461011c578063715018a61461013d5780637b9417c8146101545780638914e390146101755780638da5cb5b146102125780639b19251a14610243578063b7e1bd5514610264578063bb0fe98214610334578063e2ec6ec3146103dd578063f2fde38b14610432575b600080fd5b3480156100bf57600080fd5b5060408051602060048035808201358381028086018501909652808552610108953695939460249493850192918291850190849080828437509497506104539650505050505050565b604080519115158252519081900360200190f35b34801561012857600080fd5b50610108600160a060020a03600435166104b6565b34801561014957600080fd5b50610152610551565b005b34801561016057600080fd5b50610108600160a060020a03600435166105c1565b34801561018157600080fd5b506040805160206004803580820135601f810184900484028501840190955284845261015294369492936024939284019190819084018382808284375050604080516020601f818a01358b0180359182018390048302840183018552818452989b8a359b909a9099940197509195509182019350915081908401838280828437509497506106609650505050505050565b34801561021e57600080fd5b50610227610910565b60408051600160a060020a039092168252519081900360200190f35b34801561024f57600080fd5b50610108600160a060020a036004351661091f565b34801561027057600080fd5b506040805160206004803580820135601f81018490048402850184019095528484526102bf94369492936024939284019190819084018382808284375094975050933594506109349350505050565b6040805160208082528351818301528351919283929083019185019080838360005b838110156102f95781810151838201526020016102e1565b50505050905090810190601f1680156103265780820380516001836020036101000a031916815260200191505b509250505060405180910390f35b34801561034057600080fd5b506040805160206004803580820135601f810184900484028501840190955284845261038d943694929360249392840191908190840183828082843750949750610a349650505050505050565b60408051602080825283518183015283519192839290830191858101910280838360005b838110156103c95781810151838201526020016103b1565b505050509050019250505060405180910390f35b3480156103e957600080fd5b506040805160206004803580820135838102808601850190965280855261010895369593946024949385019291829185019084908082843750949750610ae39650505050505050565b34801561043e57600080fd5b50610152600160a060020a0360043516610b40565b60008054819033600160a060020a0390811691161461047157600080fd5b5060005b82518110156104b05761049e838281518110151561048f57fe5b906020019060200201516104b6565b156104a857600191505b600101610475565b50919050565b6000805433600160a060020a039081169116146104d257600080fd5b600160a060020a03821660009081526001602052604090205460ff161561054c57600160a060020a038216600081815260016020908152604091829020805460ff19169055815192835290517ff1abf01a1043b7c244d128e8595cf0c1d10743b022b03a02dffd8ca3bf729f5a9281900390910190a15060015b919050565b60005433600160a060020a0390811691161461056c57600080fd5b60008054604051600160a060020a03909116917ff8df31144d9c2f0f6b59d69b8b98abd5459d07f2742c4df920b25aae33c6482091a26000805473ffffffffffffffffffffffffffffffffffffffff19169055565b6000805433600160a060020a039081169116146105dd57600080fd5b600160a060020a03821660009081526001602052604090205460ff16151561054c57600160a060020a038216600081815260016020818152604092839020805460ff1916909217909155815192835290517fd1bba68c128cc3f427e5831b3c6f99f480b6efa6b9e80c757768f6124158cc3f9281900390910190a1506001919050565b600160a060020a03331660009081526001602052604090205460ff16151561068757600080fd5b60006002846040518082805190602001908083835b602083106106bb5780518252601f19909201916020918201910161069c565b6001836020036101000a0380198251168184511680821785525050505050509050019150509081526020016040518091039020600084600019166000191681526020019081526020016000208054600181600116156101000203166002900490501115151561072957600080fd5b806002846040518082805190602001908083835b6020831061075c5780518252601f19909201916020918201910161073d565b51815160209384036101000a60001901801990921691161790529201948552506040805194859003820190942060008881529082529390932084516107aa9591949190910192509050610bd8565b506003836040518082805190602001908083835b602083106107dd5780518252601f1990920191602091820191016107be565b51815160209384036101000a6000190180199092169116179052920194855250604051938490038101842080546001810182556000918252908290200186905586518694889450925082918401908083835b6020831061084e5780518252601f19909201916020918201910161082f565b51815160209384036101000a60001901801990921691161790526040805192909401829003822081835288518383015288519096507f737dcdb84fe618a1b5c751a117e8f99b89dd726fb85d57cfc5acb3e2c9c9707395508894929350839283019185019080838360005b838110156108d15781810151838201526020016108b9565b50505050905090810190601f1680156108fe5780820380516001836020036101000a031916815260200191505b509250505060405180910390a3505050565b600054600160a060020a031681565b60016020526000908152604090205460ff1681565b60606002836040518082805190602001908083835b602083106109685780518252601f199092019160209182019101610949565b518151600019602094850361010090810a8201928316921993909316919091179092529490920196875260408051978890038201882060008b81529083528190208054601f6002600183161590980290950116959095049283018290048202880182019052818752929450925050830182828015610a275780601f106109fc57610100808354040283529160200191610a27565b820191906000526020600020905b815481529060010190602001808311610a0a57829003601f168201915b5050505050905092915050565b60606003826040518082805190602001908083835b60208310610a685780518252601f199092019160209182019101610a49565b51815160209384036101000a600019018019909216911617905292019485525060408051948590038201852080548084028701840190925281865293509150830182828015610ad757602002820191906000526020600020905b81548152600190910190602001808311610ac2575b50505050509050919050565b60008054819033600160a060020a03908116911614610b0157600080fd5b5060005b82518110156104b057610b2e8382815181101515610b1f57fe5b906020019060200201516105c1565b15610b3857600191505b600101610b05565b60005433600160a060020a03908116911614610b5b57600080fd5b600160a060020a0381161515610b7057600080fd5b60008054604051600160a060020a03808516939216917f8be0079c531659141344cd1fd0a4f28419497f9722a3daafe3b4186f6b6457e091a36000805473ffffffffffffffffffffffffffffffffffffffff1916600160a060020a0392909216919091179055565b828054600181600116156101000203166002900490600052602060002090601f016020900481019282601f10610c1957805160ff1916838001178555610c46565b82800160010185558215610c46579182015b82811115610c46578251825591602001919060010190610c2b565b50610c52929150610c56565b5090565b610c7091905b80821115610c525760008155600101610c5c565b905600a165627a7a72305820153885e61eacf3188dba83ef099c1a04df4fabdcf4c94a96b0ebdf39f44020060029",
  "source": "pragma solidity ^0.4.21;\n\nimport \"zeppelin-solidity/contracts/ownership/Whitelist.sol\";\n\ncontract IDPig is Whitelist {\n    mapping(string=>mapping(bytes32=>string))  idkv;\n    mapping(string=>bytes32[])  idlist;\n    \n    event SetLog(string indexed,bytes32 indexed,string);\n    \n    function IDPig() public {\n        \n    }\n    function set(string _id,bytes32 _k,string _v ) onlyWhitelisted public {\n        require(bytes(idkv[_id][_k]).length<=0);\n        idkv[_id][_k] = _v;\n        idlist[_id].push(_k);\n        emit SetLog(_id,_k,_v);\n    }\n    function get(string _id,bytes32 _k)   public view returns(string){\n        return idkv[_id][_k];\n    }\n    function getListKey(string _id) public view returns(bytes32[]){\n        return idlist[_id];\n    }\n    \n}",
  "sourcePath": "/Users/lixi/dapp/idpig/contracts/IDPig.sol",
  "compiler": {
    "name": "solc",
    "version": "0.4.23+commit.124ca40d.Emscripten.clang"
  },
  "schemaVersion": "2.0.0",
  "updatedAt": "2018-05-07T06:50:16.197Z"
}